Sent:  8=FIX.4.2|9=63|35=A|49=TCI|56=SCI|34=1|52=20120903-17:33:36|98=0|108=30|141=Y|10=35|
Received: 8=FIX.4.2|9=63|35=A|49=SCI|56=TCI|34=1|52=20120903-13:33:36|98=0|108=30|141=Y|10=031|

Sent:  8=FIX.4.2|9=54|35=2|49=TCI|56=SCI|34=2|52=20120903-17:33:36|7=1|16=0|10=74|
Received: 8=FIX.4.2|9=83|35=4|49=SCI|56=TCI|34=1|52=20120903-13:33:36|43=Y|122=20120903-13:33:36|123=Y|36=2|10=010|

Sent:  8=FIX.4.2|9=160|35=V|49=TCI|56=SCI|52=20120903-17:33:36
|266=Y|34=3|262=7657653331212|263=1|264=1|265=0|146=1|55=RIU2|48=RIU2|22=8|100=FORTS|207=FORTS|15=SUR|267=2|269=0|269=1|10=4|
Sent:  8=FIX.4.2|9=63|35=A|49=TCI|56=SCI|34=1|52=20130702-12:20:28|98=0|108=30|141=Y|10=25|
Received: 8=FIX.4.2|9=63|35=A|49=SCI|56=TCI|34=1|52=20130702-08:20:28|98=0|108=30|141=Y|10=030|

Sent:  8=FIX.4.2|9=54|35=2|49=TCI|56=SCI|34=2|52=20130702-12:20:28|7=1|16=0|10=64|
Received: 8=FIX.4.2|9=83|35=4|49=SCI|56=TCI|34=1|52=20130702-08:20:28|43=Y|122=20130702-08:20:28|123=Y|36=2|10=008|

Sent:  8=FIX.4.2|9=150|35=V|49=TCI|56=SCI|52=20130702-12:20:28
|266=Y|34=3|262=7657653331212|263=1|264=1|265=0|146=1|55=SBER|48=SBER|22=8|207=MICEX|15=SUR|267=2|269=0|269=1|10=152|
